:0200000480007A
:100000006F00000213000000130000001300000046
:100010001300000013000000130000001300000094
:1000200097110000938181B7138181A0170500000B
:100030001305C53697050000938545366308B5005E
:1000400023200500130545006FF05FFFEF008017C8
:040050006F0000003D
:10005400B7060081930700122390F600A3810600DF
:100064002380060063100610638605143308B50068
:10007400B705008103470500930680009357770076
:100084002380F50093E707012380F50083C705006B
:10009400131717009386F6FF93D7170093F71700EB
:1000A400B3E7E70013F7F70FE39A06FC2300E50034
:1000B40013051500E31005FD930700022380F500E6
:1000C400630A0608370700811305000223000700AE
:1000D400130680009306500093D776002300F700A0
:1000E40093E707012300F700834707009396160060
:1000F4001306F6FF93D7170093F71700B3E7D7005B
:1001040093F6F70FE31A06FC13068000930600002B
:1001140093D776002300F70093E707012300F70045
:1001240083470700939616001306F6FF93D717002C
:1001340093F71700B3E7D7009395870193D58541CB
:1001440093F6F70FE31606FC2300A70093F51500BA
:10015400E39E05F6B7070081130700F8A381E700C3
:10016400678000001308800013076000935777002E
:100174002380F60093E707012380F60083C7060077
:10018400131717001308F8FF93D7170093F71700F6
:10019400B3E7E70013F7F70FE31A08FC930700022D
:1001A4002380F60023800600E39205EC2380F6000A
:1001B4006FF05FF1930700022380F6006FF09FF960
:1001C400130101EC232E1112232C8112232A9112E4
:1001D40023282113232631132324411323225113CB
:1001E40023206113232E7111B70600831307800D9A
:1001F400B7A7070023A2E60093870712130650054A
:100204006F0080006380071803A706009387F7FF39
:10021400E31AC7FE9307600523A0F600930AC10002
:10022400930BB0FFB38B5B4137040083130B0004C3
:10023400130A1004930920001309200483270400DF
:10024400E3CE07FE93F7F70F638C670D636CFB0433
:1002540013070001638AE70613070003E390E7FE30
:10026400930710032320F400930700022306F100F0
:1002740083270400E3CE07FEA306F10083270400CE
:10028400E3CE07FE2307F10083270400E3CE07FE35
:10029400A307F100639E040C930720032320F400BA
:1002A4006FF0DFF9130750056386E7061307000FA5
:1002B400E396E7F81307100FB70700802320E40044
:1002C400E78007006FF09FF7930710012320F400E5
:1002D40083270400E3CE07FE13F6F70F93041600FA
:1002E400930601011307000083270400E3CE07FEF1
:1002F40093F7F70F2380F600938616003387E70001
:10030400B387DB001377F70FE3C0C7FE2320E400B5
:100314006FF0DFF2930760052320F4006FF01FF203
:10032400232044012306310183270400E3CE07FE82
:10033400A306F10083270400E3CE07FE2307F100A0
:1003440083270400E3CE07FEA307F10063960400AD
:10035400232024016FF09FEE1306100093854400C0
:1003640013850A00EFF0DFCE232024016FF01FED88
:10037400130610009305400013850A00EFF05FCDCB
:100384006FF09FF1B7071000E78007006FF01FE9D7
:040000058000000077
:00000001FF
